{
  "contractName": "BallotFactory",
  "abi": [
    {
      "constant": true,
      "inputs": [
        {
          "internalType": "uint256",
          "name": "",
          "type": "uint256"
        }
      ],
      "name": "deployedBallotsAddress",
      "outputs": [
        {
          "internalType": "address",
          "name": "",
          "type": "address"
        }
      ],
      "payable": false,
      "stateMutability": "view",
      "type": "function"
    },
    {
      "constant": false,
      "inputs": [
        {
          "internalType": "string",
          "name": "_title",
          "type": "string"
        },
        {
          "internalType": "string",
          "name": "_description",
          "type": "string"
        },
        {
          "internalType": "string",
          "name": "_option1",
          "type": "string"
        },
        {
          "internalType": "string",
          "name": "_option2",
          "type": "string"
        }
      ],
      "name": "createBallot",
      "outputs": [],
      "payable": false,
      "stateMutability": "nonpayable",
      "type": "function"
    },
    {
      "constant": true,
      "inputs": [],
      "name": "getDeployedBallots",
      "outputs": [
        {
          "internalType": "address[]",
          "name": "",
          "type": "address[]"
        }
      ],
      "payable": false,
      "stateMutability": "view",
      "type": "function"
    }
  ],
  "bytecode": "0x608060405234801561001057600080fd5b50611b6c806100206000396000f3fe608060405234801561001057600080fd5b50600436106100415760003560e01c806305634063146100465780639b935abf146102c6578063be5c87ad14610325575b600080fd5b6102c46004803603608081101561005c57600080fd5b810190808035906020019064010000000081111561007957600080fd5b82018360208201111561008b57600080fd5b803590602001918460018302840111640100000000831117156100ad57600080fd5b91908080601f016020809104026020016040519081016040528093929190818152602001838380828437600081840152601f19601f8201169050808301925050505050505091929192908035906020019064010000000081111561011057600080fd5b82018360208201111561012257600080fd5b8035906020019184600183028401116401000000008311171561014457600080fd5b91908080601f016020809104026020016040519081016040528093929190818152602001838380828437600081840152601f19601f820116905080830192505050505050509192919290803590602001906401000000008111156101a757600080fd5b8201836020820111156101b957600080fd5b803590602001918460018302840111640100000000831117156101db57600080fd5b91908080601f016020809104026020016040519081016040528093929190818152602001838380828437600081840152601f19601f8201169050808301925050505050505091929192908035906020019064010000000081111561023e57600080fd5b82018360208201111561025057600080fd5b8035906020019184600183028401116401000000008311171561027257600080fd5b91908080601f016020809104026020016040519081016040528093929190818152602001838380828437600081840152601f19601f820116905080830192505050505050509192919290505050610393565b005b6102ce610618565b6040518080602001828103825283818151815260200191508051906020019060200280838360005b838110156103115780820151818401526020810190506102f6565b505050509050019250505060405180910390f35b6103516004803603602081101561033b57600080fd5b81019080803590602001909291905050506106a6565b604051808273ffffffffffffffffffffffffffffffffffffffff1673ffffffffffffffffffffffffffffffffffffffff16815260200191505060405180910390f35b600084848484336040516103a6906106e2565b80806020018060200180602001806020018673ffffffffffffffffffffffffffffffffffffffff1673ffffffffffffffffffffffffffffffffffffffff16815260200185810385528a818151815260200191508051906020019080838360005b83811015610421578082015181840152602081019050610406565b50505050905090810190601f16801561044e5780820380516001836020036101000a031916815260200191505b50858103845289818151815260200191508051906020019080838360005b8381101561048757808201518184015260208101905061046c565b50505050905090810190601f1680156104b45780820380516001836020036101000a031916815260200191505b50858103835288818151815260200191508051906020019080838360005b838110156104ed5780820151818401526020810190506104d2565b50505050905090810190601f16801561051a5780820380516001836020036101000a031916815260200191505b50858103825287818151815260200191508051906020019080838360005b83811015610553578082015181840152602081019050610538565b50505050905090810190601f1680156105805780820380516001836020036101000a031916815260200191505b509950505050505050505050604051809103906000f0801580156105a8573d6000803e3d6000fd5b50905060008190806001815401808255809150509060018203906000526020600020016000909192909190916101000a81548173ffffffffffffffffffffffffffffffffffffffff021916908373ffffffffffffffffffffffffffffffffffffffff160217905550505050505050565b6060600080548060200260200160405190810160405280929190818152602001828054801561069c57602002820191906000526020600020905b8160009054906101000a900473ffffffffffffffffffffffffffffffffffffffff1673ffffffffffffffffffffffffffffffffffffffff1681526020019060010190808311610652575b5050505050905090565b600081815481106106b357fe5b906000526020600020016000915054906101000a900473ffffffffffffffffffffffffffffffffffffffff1681565b611448806106f08339019056fe60806040523480156200001157600080fd5b506040516200144838038062001448833981810160405260a08110156200003757600080fd5b81019080805160405193929190846401000000008211156200005857600080fd5b838201915060208201858111156200006f57600080fd5b82518660018202830111640100000000821117156200008d57600080fd5b8083526020830192505050908051906020019080838360005b83811015620000c3578082015181840152602081019050620000a6565b50505050905090810190601f168015620000f15780820380516001836020036101000a031916815260200191505b50604052602001805160405193929190846401000000008211156200011557600080fd5b838201915060208201858111156200012c57600080fd5b82518660018202830111640100000000821117156200014a57600080fd5b8083526020830192505050908051906020019080838360005b838110156200018057808201518184015260208101905062000163565b50505050905090810190601f168015620001ae5780820380516001836020036101000a031916815260200191505b5060405260200180516040519392919084640100000000821115620001d257600080fd5b83820191506020820185811115620001e957600080fd5b82518660018202830111640100000000821117156200020757600080fd5b8083526020830192505050908051906020019080838360005b838110156200023d57808201518184015260208101905062000220565b50505050905090810190601f1680156200026b5780820380516001836020036101000a031916815260200191505b50604052602001805160405193929190846401000000008211156200028f57600080fd5b83820191506020820185811115620002a657600080fd5b8251866001820283011164010000000082111715620002c457600080fd5b8083526020830192505050908051906020019080838360005b83811015620002fa578082015181840152602081019050620002dd565b50505050905090810190601f168015620003285780820380516001836020036101000a031916815260200191505b506040526020018051906020019092919050505080600060016101000a81548173ffffffffffffffffffffffffffffffffffffffff021916908373ffffffffffffffffffffffffffffffffffffffff16021790555084600390805190602001906200039592919062000410565b508360049080519060200190620003ae92919062000410565b508260059080519060200190620003c792919062000410565b508160069080519060200190620003e092919062000410565b5060008060006101000a81548160ff021916908360028111156200040057fe5b02179055505050505050620004bf565b828054600181600116156101000203166002900490600052602060002090601f016020900481019282601f106200045357805160ff191683800117855562000484565b8280016001018555821562000484579182015b828111156200048357825182559160200191906001019062000466565b5b50905062000493919062000497565b5090565b620004bc91905b80821115620004b85760008160009055506001016200049e565b5090565b90565b610f7980620004cf6000396000f3fe608060405234801561001057600080fd5b506004361061010b5760003560e01c806375f19abc116100a2578063bc86f38511610071578063bc86f385146103d3578063c19d93fb14610432578063c27952aa1461045e578063dff5b83e146104e1578063f4ab9adf1461053d5761010b565b806375f19abc1461030a578063871e03c614610328578063909d5527146103ab578063a4f6b572146103b55761010b565b8063481c6a75116100de578063481c6a751461014c5780634a79d50c14610196578063557cf0ec146102195780637284e416146102875761010b565b8063117ab9bc146101105780633a47cb601461011a5780633a87331414610124578063452ddecc14610142575b600080fd5b610118610581565b005b6101226106da565b005b61012c61078c565b6040518082815260200191505060405180910390f35b61014a6107c9565b005b61015461087b565b604051808273ffffffffffffffffffffffffffffffffffffffff1673ffffffffffffffffffffffffffffffffffffffff16815260200191505060405180910390f35b61019e6108a1565b6040518080602001828103825283818151815260200191508051906020019080838360005b838110156101de5780820151818401526020810190506101c3565b50505050905090810190601f16801561020b5780820380516001836020036101000a031916815260200191505b509250505060405180910390f35b6102456004803603602081101561022f57600080fd5b810190808035906020019092919050505061093f565b604051808273ffffffffffffffffffffffffffffffffffffffff1673ffffffffffffffffffffffffffffffffffffffff16815260200191505060405180910390f35b61028f61097b565b6040518080602001828103825283818151815260200191508051906020019080838360005b838110156102cf5780820151818401526020810190506102b4565b50505050905090810190601f1680156102fc5780820380516001836020036101000a031916815260200191505b509250505060405180910390f35b610312610a19565b6040518082815260200191505060405180910390f35b610330610a1f565b6040518080602001828103825283818151815260200191508051906020019080838360005b83811015610370578082015181840152602081019050610355565b50505050905090810190601f16801561039d5780820380516001836020036101000a031916815260200191505b509250505060405180910390f35b6103b3610abd565b005b6103bd610c16565b6040518082815260200191505060405180910390f35b6103db610c53565b6040518080602001828103825283818151815260200191508051906020019060200280838360005b8381101561041e578082015181840152602081019050610403565b505050509050019250505060405180910390f35b61043a610d14565b6040518082600281111561044a57fe5b60ff16815260200191505060405180910390f35b610466610d26565b6040518080602001828103825283818151815260200191508051906020019080838360005b838110156104a657808201518184015260208101905061048b565b50505050905090810190601f1680156104d35780820380516001836020036101000a031916815260200191505b509250505060405180910390f35b610523600480360360208110156104f757600080fd5b81019080803573ffffffffffffffffffffffffffffffffffffffff169060200190929190505050610dc4565b604051808215151515815260200191505060405180910390f35b61057f6004803603602081101561055357600080fd5b81019080803573ffffffffffffffffffffffffffffffffffffffff169060200190929190505050610de4565b005b60001515600a60003373ffffffffffffffffffffffffffffffffffffffff1673ffffffffffffffffffffffffffffffffffffffff16815260200190815260200160002060009054906101000a900460ff161515146105de57600080fd5b60011515600960003373ffffffffffffffffffffffffffffffffffffffff1673ffffffffffffffffffffffffffffffffffffffff16815260200190815260200160002060009054906101000a900460ff1615151461063b57600080fd5b600180600281111561064957fe5b6000809054906101000a900460ff16600281111561066357fe5b1461066d57600080fd5b6008600081548092919060010191905055506001600a60003373ffffffffffffffffffffffffffffffffffffffff1673ffffffffffffffffffffffffffffffffffffffff16815260200190815260200160002060006101000a81548160ff02191690831515021790555050565b600060019054906101000a900473ffffffffffffffffffffffffffffffffffffffff1673ffffffffffffffffffffffffffffffffffffffff163373ffffffffffffffffffffffffffffffffffffffff161461073457600080fd5b600180600281111561074257fe5b6000809054906101000a900460ff16600281111561075c57fe5b1461076657600080fd5b60026000806101000a81548160ff0219169083600281111561078457fe5b021790555050565b6000600280600281111561079c57fe5b6000809054906101000a900460ff1660028111156107b657fe5b146107c057600080fd5b60075491505090565b600060019054906101000a900473ffffffffffffffffffffffffffffffffffffffff1673ffffffffffffffffffffffffffffffffffffffff163373ffffffffffffffffffffffffffffffffffffffff161461082357600080fd5b600080600281111561083157fe5b6000809054906101000a900460ff16600281111561084b57fe5b1461085557600080fd5b60016000806101000a81548160ff0219169083600281111561087357fe5b021790555050565b600060019054906101000a900473ffffffffffffffffffffffffffffffffffffffff1681565b60038054600181600116156101000203166002900480601f0160208091040260200160405190810160405280929190818152602001828054600181600116156101000203166002900480156109375780601f1061090c57610100808354040283529160200191610937565b820191906000526020600020905b81548152906001019060200180831161091a57829003601f168201915b505050505081565b6001818154811061094c57fe5b906000526020600020016000915054906101000a900473ffffffffffffffffffffffffffffffffffffffff1681565b60048054600181600116156101000203166002900480601f016020809104026020016040519081016040528092919081815260200182805460018160011615610100020316600290048015610a115780601f106109e657610100808354040283529160200191610a11565b820191906000526020600020905b8154815290600101906020018083116109f457829003601f168201915b505050505081565b60025481565b60068054600181600116156101000203166002900480601f016020809104026020016040519081016040528092919081815260200182805460018160011615610100020316600290048015610ab55780601f10610a8a57610100808354040283529160200191610ab5565b820191906000526020600020905b815481529060010190602001808311610a9857829003601f168201915b505050505081565b60001515600a60003373ffffffffffffffffffffffffffffffffffffffff1673ffffffffffffffffffffffffffffffffffffffff16815260200190815260200160002060009054906101000a900460ff16151514610b1a57600080fd5b60011515600960003373ffffffffffffffffffffffffffffffffffffffff1673ffffffffffffffffffffffffffffffffffffffff16815260200190815260200160002060009054906101000a900460ff16151514610b7757600080fd5b6001806002811115610b8557fe5b6000809054906101000a900460ff166002811115610b9f57fe5b14610ba957600080fd5b6007600081548092919060010191905055506001600a60003373ffffffffffffffffffffffffffffffffffffffff1673ffffffffffffffffffffffffffffffffffffffff16815260200190815260200160002060006101000a81548160ff02191690831515021790555050565b60006002806002811115610c2657fe5b6000809054906101000a900460ff166002811115610c4057fe5b14610c4a57600080fd5b60085491505090565b60606002806002811115610c6357fe5b6000809054906101000a900460ff166002811115610c7d57fe5b14610c8757600080fd5b6001805480602002602001604051908101604052809291908181526020018280548015610d0957602002820191906000526020600020905b8160009054906101000a900473ffffffffffffffffffffffffffffffffffffffff1673ffffffffffffffffffffffffffffffffffffffff1681526020019060010190808311610cbf575b505050505091505090565b6000809054906101000a900460ff1681565b60058054600181600116156101000203166002900480601f016020809104026020016040519081016040528092919081815260200182805460018160011615610100020316600290048015610dbc5780601f10610d9157610100808354040283529160200191610dbc565b820191906000526020600020905b815481529060010190602001808311610d9f57829003601f168201915b505050505081565b60096020528060005260406000206000915054906101000a900460ff1681565b600060019054906101000a900473ffffffffffffffffffffffffffffffffffffffff1673ffffffffffffffffffffffffffffffffffffffff163373ffffffffffffffffffffffffffffffffffffffff1614610e3e57600080fd5b6000806002811115610e4c57fe5b6000809054906101000a900460ff166002811115610e6657fe5b14610e7057600080fd5b6001600960008473ffffffffffffffffffffffffffffffffffffffff1673ffffffffffffffffffffffffffffffffffffffff16815260200190815260200160002060006101000a81548160ff02191690831515021790555060018290806001815401808255809150509060018203906000526020600020016000909192909190916101000a81548173ffffffffffffffffffffffffffffffffffffffff021916908373ffffffffffffffffffffffffffffffffffffffff16021790555050600260008154809291906001019190505550505056fea265627a7a72315820fb5c522fa7e3b7346694ae19db1f18374d624e874c3456b3ebe39568841e25b664736f6c63430005100032a265627a7a723158209c11796a23a8b985526f1505db908b467493e4d7961a6809979494429e7243e864736f6c63430005100032",
  "source": "pragma solidity >=0.5.0 <0.6.8;\n\n\ncontract BallotFactory {\n    address[] public deployedBallotsAddress;\n\n    function createBallot(\n        string memory _title,\n        string memory _description,\n        string memory _option1,\n        string memory _option2\n    ) public {\n        address newBallotAddress = address(\n            new Ballot(_title, _description, _option1, _option2, msg.sender)\n        ); //to deploy another contract, it returns an address\n        deployedBallotsAddress.push(newBallotAddress);\n    }\n\n    function getDeployedBallots() public view returns (address[] memory) {\n        return deployedBallotsAddress;\n    }\n}\n\n\ncontract Ballot {\n    //Variable declarations\n    enum State {Created, Voting, Ended}\n    State public state;\n\n    address public manager;\n    address[] public approvedVotersList;\n    uint256 public approvedVotersCount;\n    string public title;\n    string public description;\n    string public optionName1;\n    string public optionName2;\n    uint256 private optionVoteCount1;\n    uint256 private optionVoteCount2;\n\n    mapping(address => bool) public approvedVoters;\n    mapping(address => bool) private voted;\n\n    //Constructor to initialize variables\n    constructor(\n        string memory _title,\n        string memory _description,\n        string memory _optionName1,\n        string memory _optionName2,\n        address creator\n    ) public {\n        manager = creator;\n        title = _title;\n        description = _description;\n        optionName1 = _optionName1;\n        optionName2 = _optionName2;\n        state = State.Created;\n    }\n\n    //Modifiers\n    modifier onlyManager {\n        require(msg.sender == manager);\n        _;\n    }\n\n    modifier notVoted {\n        require(voted[msg.sender] == false);\n        _;\n    }\n\n    modifier inState(State _state) {\n        require(state == _state);\n        _;\n    }\n\n    modifier isRegistered() {\n        require(approvedVoters[msg.sender] == true);\n        _;\n    }\n\n    //Manager's Functions\n    function addVoter(address _voter)\n        public\n        onlyManager\n        inState(State.Created)\n    {\n        approvedVoters[_voter] = true;\n        approvedVotersList.push(_voter);\n        approvedVotersCount++;\n    }\n\n    function startBallot() public onlyManager inState(State.Created) {\n        state = State.Voting;\n    }\n\n    function endBallot() public onlyManager inState(State.Voting) {\n        state = State.Ended;\n    }\n\n    function getVotersList()\n        public\n        view\n        inState(State.Ended)\n        returns (address[] memory)\n    {\n        return approvedVotersList;\n    }\n\n    //Public's Functions\n    function voteOption1() public notVoted isRegistered inState(State.Voting) {\n        optionVoteCount1++;\n        voted[msg.sender] = true;\n    }\n\n    function voteOption2() public notVoted isRegistered inState(State.Voting) {\n        optionVoteCount2++;\n        voted[msg.sender] = true;\n    }\n\n    //Get results function\n    function getResults1() public view inState(State.Ended) returns (uint256) {\n        return optionVoteCount1;\n    }\n\n    function getResults2() public view inState(State.Ended) returns (uint256) {\n        return optionVoteCount2;\n    }\n}\n",
  "sourcePath": "/Users/henryking/Dapps/vote_on_eth/ethereum/contracts/Voteoneth.sol",
  "compiler": {
    "name": "solc",
    "version": "0.5.16+commit.9c3226ce.Emscripten.clang"
  },
  "schemaVersion": "3.2.0",
  "updatedAt": "2020-05-31T13:20:51.882Z",
  "networkType": "ethereum",
  "devdoc": {
    "methods": {}
  },
  "userdoc": {
    "methods": {}
  }
}