{
  "_format": "hh-sol-artifact-1",
  "contractName": "Ballot",
  "sourceName": "contracts/Voteoneth.sol",
  "abi": [
    {
      "inputs": [
        {
          "internalType": "string",
          "name": "_title",
          "type": "string"
        },
        {
          "internalType": "string",
          "name": "_description",
          "type": "string"
        },
        {
          "internalType": "string",
          "name": "_optionName1",
          "type": "string"
        },
        {
          "internalType": "string",
          "name": "_optionName2",
          "type": "string"
        },
        {
          "internalType": "uint256",
          "name": "_startTime",
          "type": "uint256"
        },
        {
          "internalType": "uint256",
          "name": "_endTime",
          "type": "uint256"
        },
        {
          "internalType": "address",
          "name": "creator",
          "type": "address"
        }
      ],
      "stateMutability": "nonpayable",
      "type": "constructor"
    },
    {
      "inputs": [
        {
          "internalType": "address",
          "name": "_voter",
          "type": "address"
        }
      ],
      "name": "addVoter",
      "outputs": [],
      "stateMutability": "nonpayable",
      "type": "function"
    },
    {
      "inputs": [
        {
          "internalType": "address",
          "name": "",
          "type": "address"
        }
      ],
      "name": "approvedVoters",
      "outputs": [
        {
          "internalType": "bool",
          "name": "",
          "type": "bool"
        }
      ],
      "stateMutability": "view",
      "type": "function"
    },
    {
      "inputs": [],
      "name": "approvedVotersCount",
      "outputs": [
        {
          "internalType": "uint256",
          "name": "",
          "type": "uint256"
        }
      ],
      "stateMutability": "view",
      "type": "function"
    },
    {
      "inputs": [
        {
          "internalType": "uint256",
          "name": "",
          "type": "uint256"
        }
      ],
      "name": "approvedVotersList",
      "outputs": [
        {
          "internalType": "address",
          "name": "",
          "type": "address"
        }
      ],
      "stateMutability": "view",
      "type": "function"
    },
    {
      "inputs": [],
      "name": "description",
      "outputs": [
        {
          "internalType": "string",
          "name": "",
          "type": "string"
        }
      ],
      "stateMutability": "view",
      "type": "function"
    },
    {
      "inputs": [],
      "name": "endBallot",
      "outputs": [],
      "stateMutability": "nonpayable",
      "type": "function"
    },
    {
      "inputs": [],
      "name": "endTime",
      "outputs": [
        {
          "internalType": "uint256",
          "name": "",
          "type": "uint256"
        }
      ],
      "stateMutability": "view",
      "type": "function"
    },
    {
      "inputs": [],
      "name": "getResults1",
      "outputs": [
        {
          "internalType": "uint256",
          "name": "",
          "type": "uint256"
        }
      ],
      "stateMutability": "view",
      "type": "function"
    },
    {
      "inputs": [],
      "name": "getResults2",
      "outputs": [
        {
          "internalType": "uint256",
          "name": "",
          "type": "uint256"
        }
      ],
      "stateMutability": "view",
      "type": "function"
    },
    {
      "inputs": [],
      "name": "getTotalTokens",
      "outputs": [
        {
          "internalType": "uint256",
          "name": "",
          "type": "uint256"
        }
      ],
      "stateMutability": "view",
      "type": "function"
    },
    {
      "inputs": [],
      "name": "getVotersList",
      "outputs": [
        {
          "internalType": "address[]",
          "name": "",
          "type": "address[]"
        }
      ],
      "stateMutability": "view",
      "type": "function"
    },
    {
      "inputs": [],
      "name": "manager",
      "outputs": [
        {
          "internalType": "address",
          "name": "",
          "type": "address"
        }
      ],
      "stateMutability": "view",
      "type": "function"
    },
    {
      "inputs": [],
      "name": "optionName1",
      "outputs": [
        {
          "internalType": "string",
          "name": "",
          "type": "string"
        }
      ],
      "stateMutability": "view",
      "type": "function"
    },
    {
      "inputs": [],
      "name": "optionName2",
      "outputs": [
        {
          "internalType": "string",
          "name": "",
          "type": "string"
        }
      ],
      "stateMutability": "view",
      "type": "function"
    },
    {
      "inputs": [],
      "name": "startBallot",
      "outputs": [],
      "stateMutability": "nonpayable",
      "type": "function"
    },
    {
      "inputs": [],
      "name": "startTime",
      "outputs": [
        {
          "internalType": "uint256",
          "name": "",
          "type": "uint256"
        }
      ],
      "stateMutability": "view",
      "type": "function"
    },
    {
      "inputs": [],
      "name": "state",
      "outputs": [
        {
          "internalType": "enum Ballot.State",
          "name": "",
          "type": "uint8"
        }
      ],
      "stateMutability": "view",
      "type": "function"
    },
    {
      "inputs": [],
      "name": "title",
      "outputs": [
        {
          "internalType": "string",
          "name": "",
          "type": "string"
        }
      ],
      "stateMutability": "view",
      "type": "function"
    },
    {
      "inputs": [
        {
          "internalType": "address",
          "name": "_from",
          "type": "address"
        },
        {
          "internalType": "address",
          "name": "_to",
          "type": "address"
        },
        {
          "internalType": "uint256",
          "name": "_tokens",
          "type": "uint256"
        }
      ],
      "name": "transferFrom",
      "outputs": [
        {
          "internalType": "bool",
          "name": "success",
          "type": "bool"
        }
      ],
      "stateMutability": "nonpayable",
      "type": "function"
    },
    {
      "inputs": [
        {
          "internalType": "uint256",
          "name": "_tokensAmount",
          "type": "uint256"
        }
      ],
      "name": "voteOption1",
      "outputs": [],
      "stateMutability": "nonpayable",
      "type": "function"
    },
    {
      "inputs": [
        {
          "internalType": "uint256",
          "name": "_tokensAmount",
          "type": "uint256"
        }
      ],
      "name": "voteOption2",
      "outputs": [],
      "stateMutability": "nonpayable",
      "type": "function"
    }
  ],
  "bytecode": "0x6080604052731f9061b953bba0e36bf50f21876132dcf276fc6e6000806101000a81548173ffffffffffffffffffffffffffffffffffffffff021916908373ffffffffffffffffffffffffffffffffffffffff16021790555060008054906101000a900473ffffffffffffffffffffffffffffffffffffffff16600160006101000a81548173ffffffffffffffffffffffffffffffffffffffff021916908373ffffffffffffffffffffffffffffffffffffffff160217905550348015620000c657600080fd5b50604051620019b7380380620019b7833981810160405260e0811015620000ec57600080fd5b81019080805160405193929190846401000000008211156200010d57600080fd5b838201915060208201858111156200012457600080fd5b82518660018202830111640100000000821117156200014257600080fd5b8083526020830192505050908051906020019080838360005b83811015620001785780820151818401526020810190506200015b565b50505050905090810190601f168015620001a65780820380516001836020036101000a031916815260200191505b5060405260200180516040519392919084640100000000821115620001ca57600080fd5b83820191506020820185811115620001e157600080fd5b8251866001820283011164010000000082111715620001ff57600080fd5b8083526020830192505050908051906020019080838360005b838110156200023557808201518184015260208101905062000218565b50505050905090810190601f168015620002635780820380516001836020036101000a031916815260200191505b50604052602001805160405193929190846401000000008211156200028757600080fd5b838201915060208201858111156200029e57600080fd5b8251866001820283011164010000000082111715620002bc57600080fd5b8083526020830192505050908051906020019080838360005b83811015620002f2578082015181840152602081019050620002d5565b50505050905090810190601f168015620003205780820380516001836020036101000a031916815260200191505b50604052602001805160405193929190846401000000008211156200034457600080fd5b838201915060208201858111156200035b57600080fd5b82518660018202830111640100000000821117156200037957600080fd5b8083526020830192505050908051906020019080838360005b83811015620003af57808201518184015260208101905062000392565b50505050905090810190601f168015620003dd5780820380516001836020036101000a031916815260200191505b5060405260200180519060200190929190805190602001909291908051906020019092919050505080600260006101000a81548173ffffffffffffffffffffffffffffffffffffffff021916908373ffffffffffffffffffffffffffffffffffffffff16021790555086600790805190602001906200045e929190620004ea565b50856008908051906020019062000477929190620004ea565b50846009908051906020019062000490929190620004ea565b5083600a9080519060200190620004a9929190620004ea565b5082600581905550816006819055506000600160146101000a81548160ff02191690836002811115620004d857fe5b02179055505050505050505062000590565b828054600181600116156101000203166002900490600052602060002090601f016020900481019282601f106200052d57805160ff19168380011785556200055e565b828001600101855582156200055e579182015b828111156200055d57825182559160200191906001019062000540565b5b5090506200056d919062000571565b5090565b5b808211156200058c57600081600090555060010162000572565b5090565b61141780620005a06000396000f3fe608060405234801561001057600080fd5b50600436106101375760003560e01c806376ea11b8116100b8578063c19d93fb1161007c578063c19d93fb1461050c578063c27952aa14610535578063dff5b83e146105b8578063ed38b7db14610612578063f08b82e614610640578063f4ab9adf1461065e57610137565b806376ea11b8146103c057806378e97925146103ee578063871e03c61461040c578063a4f6b5721461048f578063bc86f385146104ad57610137565b8063481c6a75116100ff578063481c6a75146102105780634a79d50c14610244578063557cf0ec146102c75780637284e4161461031f57806375f19abc146103a257610137565b806323b872dd1461013c5780633197cbb6146101c05780633a47cb60146101de5780633a873314146101e8578063452ddecc14610206575b600080fd5b6101a86004803603606081101561015257600080fd5b81019080803573ffffffffffffffffffffffffffffffffffffffff169060200190929190803573ffffffffffffffffffffffffffffffffffffffff169060200190929190803590602001909291905050506106a2565b60405180821515815260200191505060405180910390f35b6101c861080d565b6040518082815260200191505060405180910390f35b6101e6610813565b005b6101f06108c7565b6040518082815260200191505060405180910390f35b61020e610905565b005b6102186109b8565b604051808273ffffffffffffffffffffffffffffffffffffffff16815260200191505060405180910390f35b61024c6109de565b6040518080602001828103825283818151815260200191508051906020019080838360005b8381101561028c578082015181840152602081019050610271565b50505050905090810190601f1680156102b95780820380516001836020036101000a031916815260200191505b509250505060405180910390f35b6102f3600480360360208110156102dd57600080fd5b8101908080359060200190929190505050610a7c565b604051808273ffffffffffffffffffffffffffffffffffffffff16815260200191505060405180910390f35b610327610ab8565b6040518080602001828103825283818151815260200191508051906020019080838360005b8381101561036757808201518184015260208101905061034c565b50505050905090810190601f1680156103945780820380516001836020036101000a031916815260200191505b509250505060405180910390f35b6103aa610b56565b6040518082815260200191505060405180910390f35b6103ec600480360360208110156103d657600080fd5b8101908080359060200190929190505050610b5c565b005b6103f6610d94565b6040518082815260200191505060405180910390f35b610414610d9a565b6040518080602001828103825283818151815260200191508051906020019080838360005b83811015610454578082015181840152602081019050610439565b50505050905090810190601f1680156104815780820380516001836020036101000a031916815260200191505b509250505060405180910390f35b610497610e38565b6040518082815260200191505060405180910390f35b6104b5610e76565b6040518080602001828103825283818151815260200191508051906020019060200280838360005b838110156104f85780820151818401526020810190506104dd565b505050509050019250505060405180910390f35b610514610f38565b6040518082600281111561052457fe5b815260200191505060405180910390f35b61053d610f4b565b6040518080602001828103825283818151815260200191508051906020019080838360005b8381101561057d578082015181840152602081019050610562565b50505050905090810190601f1680156105aa5780820380516001836020036101000a031916815260200191505b509250505060405180910390f35b6105fa600480360360208110156105ce57600080fd5b81019080803573ffffffffffffffffffffffffffffffffffffffff169060200190929190505050610fe9565b60405180821515815260200191505060405180910390f35b61063e6004803603602081101561062857600080fd5b8101908080359060200190929190505050611009565b005b610648611241565b6040518082815260200191505060405180910390f35b6106a06004803603602081101561067457600080fd5b81019080803573ffffffffffffffffffffffffffffffffffffffff169060200190929190505050611283565b005b6000600160009054906101000a900473ffffffffffffffffffffffffffffffffffffffff1673ffffffffffffffffffffffffffffffffffffffff166323b872dd8585856040518463ffffffff1660e01b8152600401808473ffffffffffffffffffffffffffffffffffffffff1681526020018373ffffffffffffffffffffffffffffffffffffffff1681526020018281526020019350505050602060405180830381600087803b15801561075557600080fd5b505af1158015610769573d6000803e3d6000fd5b505050506040513d602081101561077f57600080fd5b8101908080519060200190929190505050610802576040517f08c379a00000000000000000000000000000000000000000000000000000000081526004018080602001828103825260168152602001807f546f6b656e207472616e73666572206661696c65642e0000000000000000000081525060200191505060405180910390fd5b600190509392505050565b60065481565b600260009054906101000a900473ffffffffffffffffffffffffffffffffffffffff1673ffffffffffffffffffffffffffffffffffffffff163373ffffffffffffffffffffffffffffffffffffffff161461086d57600080fd5b600180600281111561087b57fe5b600160149054906101000a900460ff16600281111561089657fe5b146108a057600080fd5b6002600160146101000a81548160ff021916908360028111156108bf57fe5b021790555050565b600060028060028111156108d757fe5b600160149054906101000a900460ff1660028111156108f257fe5b146108fc57600080fd5b600b5491505090565b600260009054906101000a900473ffffffffffffffffffffffffffffffffffffffff1673ffffffffffffffffffffffffffffffffffffffff163373ffffffffffffffffffffffffffffffffffffffff161461095f57600080fd5b600080600281111561096d57fe5b600160149054906101000a900460ff16600281111561098857fe5b1461099257600080fd5b60018060146101000a81548160ff021916908360028111156109b057fe5b021790555050565b600260009054906101000a900473ffffffffffffffffffffffffffffffffffffffff1681565b60078054600181600116156101000203166002900480601f016020809104026020016040519081016040528092919081815260200182805460018160011615610100020316600290048015610a745780601f10610a4957610100808354040283529160200191610a74565b820191906000526020600020905b815481529060010190602001808311610a5757829003601f168201915b505050505081565b60038181548110610a8957fe5b906000526020600020016000915054906101000a900473ffffffffffffffffffffffffffffffffffffffff1681565b60088054600181600116156101000203166002900480601f016020809104026020016040519081016040528092919081815260200182805460018160011615610100020316600290048015610b4e5780601f10610b2357610100808354040283529160200191610b4e565b820191906000526020600020905b815481529060010190602001808311610b3157829003601f168201915b505050505081565b60045481565b60001515600e60003373ffffffffffffffffffffffffffffffffffffffff1673ffffffffffffffffffffffffffffffffffffffff16815260200190815260200160002060009054906101000a900460ff16151514610bb957600080fd5b60011515600d60003373ffffffffffffffffffffffffffffffffffffffff1673ffffffffffffffffffffffffffffffffffffffff16815260200190815260200160002060009054906101000a900460ff16151514610c1657600080fd5b6001806002811115610c2457fe5b600160149054906101000a900460ff166002811115610c3f57fe5b14610c4957600080fd5b6005544210158015610c5d57506006544211155b610ccf576040517f08c379a000000000000000000000000000000000000000000000000000000000815260040180806020018281038252601c8152602001807f42616c6c6f74277320656e642074696d652068617320656e6465642e0000000081525060200191505060405180910390fd5b610cda3330846106a2565b5081600b6000828254019250508190555081600f60003373ffffffffffffffffffffffffffffffffffffffff1673ffffffffffffffffffffffffffffffffffffffff168152602001908152602001600020600082825401925050819055506001600e60003373ffffffffffffffffffffffffffffffffffffffff1673ffffffffffffffffffffffffffffffffffffffff16815260200190815260200160002060006101000a81548160ff0219169083151502179055505050565b60055481565b600a8054600181600116156101000203166002900480601f016020809104026020016040519081016040528092919081815260200182805460018160011615610100020316600290048015610e305780601f10610e0557610100808354040283529160200191610e30565b820191906000526020600020905b815481529060010190602001808311610e1357829003601f168201915b505050505081565b60006002806002811115610e4857fe5b600160149054906101000a900460ff166002811115610e6357fe5b14610e6d57600080fd5b600c5491505090565b60606002806002811115610e8657fe5b600160149054906101000a900460ff166002811115610ea157fe5b14610eab57600080fd5b6003805480602002602001604051908101604052809291908181526020018280548015610f2d57602002820191906000526020600020905b8160009054906101000a900473ffffffffffffffffffffffffffffffffffffffff1673ffffffffffffffffffffffffffffffffffffffff1681526020019060010190808311610ee3575b505050505091505090565b600160149054906101000a900460ff1681565b60098054600181600116156101000203166002900480601f016020809104026020016040519081016040528092919081815260200182805460018160011615610100020316600290048015610fe15780601f10610fb657610100808354040283529160200191610fe1565b820191906000526020600020905b815481529060010190602001808311610fc457829003601f168201915b505050505081565b600d6020528060005260406000206000915054906101000a900460ff1681565b60001515600e60003373ffffffffffffffffffffffffffffffffffffffff1673ffffffffffffffffffffffffffffffffffffffff16815260200190815260200160002060009054906101000a900460ff1615151461106657600080fd5b60011515600d60003373ffffffffffffffffffffffffffffffffffffffff1673ffffffffffffffffffffffffffffffffffffffff16815260200190815260200160002060009054906101000a900460ff161515146110c357600080fd5b60018060028111156110d157fe5b600160149054906101000a900460ff1660028111156110ec57fe5b146110f657600080fd5b600554421015801561110a57506006544211155b61117c576040517f08c379a000000000000000000000000000000000000000000000000000000000815260040180806020018281038252601c8152602001807f42616c6c6f74277320656e642074696d652068617320656e6465642e0000000081525060200191505060405180910390fd5b6111873330846106a2565b5081600c6000828254019250508190555081600f60003373ffffffffffffffffffffffffffffffffffffffff1673ffffffffffffffffffffffffffffffffffffffff168152602001908152602001600020600082825401925050819055506001600e60003373ffffffffffffffffffffffffffffffffffffffff1673ffffffffffffffffffffffffffffffffffffffff16815260200190815260200160002060006101000a81548160ff0219169083151502179055505050565b6000600280600281111561125157fe5b600160149054906101000a900460ff16600281111561126c57fe5b1461127657600080fd5b600c54600b540191505090565b600260009054906101000a900473ffffffffffffffffffffffffffffffffffffffff1673ffffffffffffffffffffffffffffffffffffffff163373ffffffffffffffffffffffffffffffffffffffff16146112dd57600080fd5b60008060028111156112eb57fe5b600160149054906101000a900460ff16600281111561130657fe5b1461131057600080fd5b6001600d60008473ffffffffffffffffffffffffffffffffffffffff1673ffffffffffffffffffffffffffffffffffffffff16815260200190815260200160002060006101000a81548160ff0219169083151502179055506003829080600181540180825580915050600190039060005260206000200160009091909190916101000a81548173ffffffffffffffffffffffffffffffffffffffff021916908373ffffffffffffffffffffffffffffffffffffffff160217905550600460008154809291906001019190505550505056fea264697066735822122041c3d4702fcbf4ed676ed1a98a3bfea74295cbcd2b43816c71d1340b2af26f5c64736f6c63430007030033",
  "linkReferences": {},
  "deployedLinkReferences": {}
}